:020000040800F2
:1000000000000220391F0008050700080707000844
:10001000090700080B0700080D0700080000000092
:100020000000000000000000000000000F070008B2
:10003000110700080000000013070008150700085A
:10004000891F0008891F0008891F0008891F0008F0
:10005000891F0008891F0008891F0008891F0008E0
:10006000891F0008891F0008891F0008891F0008D0
:10007000891F0008891F0008891F0008891F0008C0
:10008000891F0008891F0008891F00081D07000834
:100090002D0700083D0700084D070008891F0008CC
:1000A000891F0008891F0008891F0008891F000890
:1000B0005D070008891F0008891F0008891F0008C4
:1000C000891F0008891F0008891F0008891F000870
:1000D000891F0008891F0008891F0008891F000860
:1000E000891F0008891F0008891F0008891F000850
:1000F000891F0008891F0008891F0008891F000840
:10010000891F0008891F0008891F0008891F00082F
:10011000891F0008891F0008891F0008891F00081F
:10012000891F0008891F0008891F0008891F00080F
:10013000891F00080000000000000000891F00085F
:10014000891F0008891F0008891F0008891F0008EF
:10015000891F0008891F0008891F0008891F0008DF
:10016000891F0008891F0008891F0008891F0008CF
:10017000891F0008891F0008891F0008000000006F
:1001800000000000891F00080000000000000000BF
:10019000891F00080000000000000000891F0008FF
:1001A000000000000000000000000000891F00089F
:1001B000891F0008891F0008891F0008891F00087F
:0401C000891F00088B
:1001C4000348044B834202D0034B03B118477047E2
:1001D4000C0000200C000020000000000548064927
:1001E4000B1AD90F01EBA301491002D0034B03B141
:1001F400184770470C0000200C000020000000008D
:1002040010B5064C237843B9FFF7DAFF044B13B15A
:100214000448AFF300800123237010BD0C000020BC
:10022400000000008C1F000808B5044B1BB10449F2
:100234000448AFF30080BDE80840CFE700000000A9
:10024400100000208C1F000870B50D4E0D4D761B5C
:10025400B61006D0002455F8043B01349847A64252
:10026400F9D1094E094D761B01F08EFEB61006D069
:10027400002455F8043B01349847A642F9D170BDD7
:10028400C41F0008C41F0008C81F0008C41F0008BA
:10029400830730B548D0541E002A3FD0CAB2034663
:1002A40001E0013C3AD303F8012B9D07F9D1032C5B
:1002B4002DD9CDB245EA05250F2C45EA054536D999
:1002C400A4F1100222F00F0C03F1200EE6444FEAD1
:1002D400121C03F1100242E9045542E9025510329E
:1002E4007245F8D10CF1010214F00C0F03EB021269
:1002F40004F00F0C13D0ACF1040323F00303043314
:10030400134442F8045B9342FBD10CF003042CB178
:10031400CAB21C4403F8012B9C42FBD130BD644695
:100324001346002CF4D1F9E703461446BFE71A46F6
:10033400A446E0E753B94AB9002908BF00281CBF06
:100344004FF0FF314FF0FF3000F074B9ADF1080CFD
:100354006DE904CE00F006F8DDF804E0DDE90223DF
:1003640004B070472DE9F047089D04468E46002BE3
:100374004DD18A42944669D9B2FA82F252B101FA55
:1003840002F3C2F1200120FA01F10CFA02FC41EA65
:10039400030E94404FEA1C48210CBEFBF8F61FFAEA
:1003A4008CF708FB16E341EA034306FB07F1994285
:1003B4000AD91CEB030306F1FF3080F01F81994238
:1003C40040F21C81023E63445B1AA4B2B3FBF8F012
:1003D40008FB103344EA034400FB07F7A7420AD999
:1003E4001CEB040400F1FF3380F00A81A74240F2C1
:1003F40007816444023840EA0640E41B00261DB12C
:10040400D4400023C5E900433146BDE8F0878B4260
:1004140009D9002D00F0EF800026C5E9000130461F
:100424003146BDE8F087B3FA83F6002E4AD18B42F9
:1004340002D3824200F2F980841A61EB03030120A3
:100444009E46002DE0D0C5E9004EDDE702B9FFDE8F
:10045400B2FA82F2002A40F09280A1EB0C014FEA3A
:100464001C471FFA8CFE0126200CB1FBF7F307FB97
:10047400131140EA01410EFB03F0884208D91CEB3A
:10048400010103F1FF3802D2884200F2CB804346D7
:10049400091AA4B2B1FBF7F007FB101144EA0144B6
:1004A4000EFB00FEA64508D91CEB040400F1FF3145
:1004B40002D2A64500F2BB800846A4EB0E0440EA33
:1004C40003409CE7C6F12007B34022FA07FC4CEA3C
:1004D400030C20FA07F401FA06F31C43F9404FEA2F
:1004E4001C4900FA06F3B1FBF9F8200C1FFA8CFE44
:1004F40009FB181140EA014108FB0EF0884202FA98
:1005040006F20BD91CEB010108F1FF3A80F0888058
:10051400884240F28580A8F102086144091AA4B215
:10052400B1FBF9F009FB101144EA014100FB0EFE96
:100534008E4508D91CEB010100F1FF346CD28E45C5
:100544006AD90238614440EA0840A0FB0294A1EB56
:100554000E01A142C846A64656D353D05DB1B3EBB3
:10056400080261EB0E0101FA07F722FA06F3F140E3
:100574001F43C5E9007100263146BDE8F087C2F18A
:100584002003D8400CFA02FC21FA03F39140014302
:100594004FEA1C471FFA8CFEB3FBF7F007FB10363B
:1005A4000B0C43EA064300FB0EF69E4204FA02F4E7
:1005B40008D91CEB030300F1FF382FD29E422DD93A
:1005C400023863449B1B89B2B3FBF7F607FB16336F
:1005D40041EA034106FB0EF38B4208D91CEB0101EF
:1005E40006F1FF3816D28B4214D9023E6144C91A6F
:1005F40046EA004638E72E46284605E70646E3E67F
:100604001846F8E64B45A9D2B9EB020864EB0C0E88
:100614000138A3E74646EAE7204694E74046D1E797
:10062400D0467BE7023B614432E7304609E7644445
:10063400023842E7704700BF72B6FEE700B595B0D6
:100644003422002107A8FFF723FE0023029303931B
:100654000493059306930093204A116C41F0805152
:100664001164126C02F080520092009A01931C4AA9
:10067400136823F4404343F480431360136803F482
:1006840040430193019B012307934FF48033089364
:1006940002230D934FF480020E9204220F925A21EA
:1006A400109111921293139307A800F0EBFB88B9F1
:1006B4000F23029303230393002304934FF48052E4
:1006C40005920693022102A800F046FA20B915B05B
:1006D4005DF804FBFFF7B0FFFFF7AEFF0038024000
:1006E4000070004008B500F073FFFFF7A7FF01F0AA
:1006F400ADFA01F0FFFA01F077FB01F0C9FBFEE768
:10070400FEE7FEE7FEE7FEE7FEE770477047704747
:1007140008B500F077FF08BD08B5024800F0F7F807
:1007240008BD00BF2C00002008B5024800F0EFF817
:1007340008BD00BF2C00002008B5024800F0E7F80F
:1007440008BD00BF2C00002008B5024800F0DFF807
:1007540008BD00BF2C00002008B5024800F098FF37
:1007640008BD00BF5400002000B583B000210091F3
:100774000C4B5A6C42F480425A645A6C02F4804224
:100784000092009A01911A6C42F080521A641B6C18
:1007940003F080530193019B072000F087FE03B010
:1007A4005DF804FB00380240002800F0A18038B551
:1007B400044690F82030D3B12268136843F0010353
:1007C400136000F02BFF054623685A6812F0010FEE
:1007D40010D100F023FF401B0A28F5D9636A43F4C3
:1007E40000336362052384F82030012038BD01F012
:1007F400A3FAE1E71A6822F002021A6000F00EFF81
:10080400054623685A6812F0020F0DD000F006FF67
:10081400401B0A28F5D9636A43F400336362052355
:1008240084F820300120E1E7227E012A3DD01A68B5
:1008340022F080021A60637E012B3BD02268136889
:1008440023F040031360A37E012B39D02268136880
:1008540023F020031360E37E012B37D02268136852
:1008640043F010031360237F012B35D022681368F3
:1008740023F008031360637F012B33D022681368CD
:1008840023F004031360A368E2681343226913434B
:10089400626913436268013A21681343CB61002003
:1008A4006062012384F82030A0E71A6842F08002D5
:1008B4001A60C0E72268136843F040031360C2E77C
:1008C4002268136843F020031360C4E722681368A6
:1008D40023F010031360C6E72268136843F008038B
:1008E4001360C8E72268136843F004031360CAE77F
:1008F40001207047704770477047704770477047D2
:1009040070477047704770477047704770472DE9CC
:10091400F84F054603685C69D3F804809F68D3F8F0
:100924000CB0D3F810A0D3F8189014F001063BD003
:1009340017F0010616D001229A6017F0020F08D1B1
:1009440017F0040F0CD117F0080606D04FF48056A8
:1009540008E0FFF7CFFF002604E0FFF7CEFF01E039
:100964004FF4006617F4807F0DD02B684FF480722B
:100974009A6017F4007F40F0868017F4806F00F0CF
:10098400868046F4005617F4803F0DD02B684FF450
:1009940080329A6017F4003F40F0838017F4802F70
:1009A40000F0838046F4004614F0080F07D01BF0D3
:1009B400100F04D046F400762B681022DA6014F08D
:1009C400040F02D01BF0080F79D114F0020F04D0E9
:1009D4002B68DB6813F0030F78D114F0400F07D0B5
:1009E4001AF0100F04D046F480662B6810221A61A6
:1009F40014F0200F02D01AF0080F6BD114F0100F6E
:100A040004D02B681B6913F0030F6AD114F4003F60
:100A140002D018F0100F68D114F4803F02D018F0FF
:100A2400080F69D114F4004F7AD018F0040F74D071
:100A340014F4807F04D019F0010F01D046F00106B0
:100A440014F4007F04D019F0020F01D046F002061E
:100A540014F4806F04D019F0040F01D046F004069A
:100A640014F4006F59D019F0700956D0B9F1400F41
:100A740065D058D8B9F1200F5ED0B9F1300F42D10A
:100A840046F0200644E02846FFF735FF7BE717F4DD
:100A9400006F02D046F4804675E72846FFF72EFF24
:100AA40071E72846FFF728FF7EE717F4002F02D0EE
:100AB40046F4803678E72846FFF721FF74E72B6871
:100AC4000822DA602846FFF71CFF7EE72846FFF776
:100AD40017FF82E72B6808221A612846FFF713FFE5
:100AE4008CE72846FFF70EFF90E72B6810225A6028
:100AF4002846FFF709FF8FE72B6808225A6028462B
:100B0400FFF703FF8EE7B9F1100F01D146F0080695
:100B14002A68936923F0700393612B6804225A6056
:100B24009EB9BDE8F88FB9F1500F0BD0B9F1600F41
:100B3400EED146F48076EBE746F01006E8E746F09F
:100B44004006E5E746F08006E2E76B6A1E436E6204
:100B54002846FFF7DBFEE4E7002800F09B8070B531
:100B64000D4604464F4B1B6803F00F038B4208D21B
:100B7400CBB24C4A1370136803F00F038B4240F05E
:100B84008B80236813F0020F17D013F0040F04D0E6
:100B9400454A936843F4E0539360236813F0080FC5
:100BA40004D0414A936843F4604393603E4A936897
:100BB40023F0F003A1680B439360236813F0010F43
:100BC40032D06368012B21D09A1E012A25D9364AD6
:100BD400126812F0020F61D033498A6822F00302CE
:100BE40013438B6000F01AFD06462F4B9B6803F0FD
:100BF4000C036268B3EB820F16D000F00FFD801B6C
:100C040041F288339842F0D9032042E0264A126820
:100C140012F4003FE0D101203BE0234A126812F0B5
:100C2400007FD9D1012034E01E4B1B6803F00F0371
:100C3400AB4207D9EAB21B4B1A701B6803F00F03CF
:100C4400AB422DD1236813F0040F06D0164A9368E3
:100C540023F4E053E1680B439360236813F0080F17
:100C640007D0114A936823F46043216943EAC1031E
:100C7400936000F047F80C4B9B68C3F303130B4AD3
:100C8400D35CD8400A4B18600A4B186800F07AFC11
:100C9400002070BD012070470120FAE70120F8E729
:100CA4000120F6E7003C024000380240A41F00087F
:100CB4000800002004000020014B1868704700BFA2
:100CC4000800002008B5FFF7F7FF044B9B68C3F347
:100CD4008223034AD35CD84008BD00BF00380240D9
:100CE400B41F000808B5FFF7E7FF044B9B68C3F384
:100CF4004233034AD35CD84008BD00BF00380240E9
:100D0400B41F000808B55C4B9B6803F00C03082B68
:100D140007D00C2B5BD0042B01D0584808BD584891
:100D2400FCE7554B5A6802F03F025B6813F4800FEE
:100D34002AD0514B5968C1F3881C4FEA4C11B1EBCE
:100D44000C006EEB0E0E4FEA8E1343EA90638101A2
:100D5400091A63EB0E03DB0043EA5173C90011EB7C
:100D64000C0C43F10003590200234FEA4C2041EAE2
:100D7400DC51FFF7DFFA404B5B68C3F301430133F7
:100D84005B00B0FBF3F0C9E73B4B5968C1F3881C27
:100D94004FEA4C11B1EB0C006EEB0E0E4FEA8E13C2
:100DA40043EA90638101091A63EB0E03DB0043EA13
:100DB4005173C90011EB0C0C43F100039902002399
:100DC4004FEA8C2041EA9C51FFF7B4FAD3E72A4B4F
:100DD4005A6802F03F025B6813F4800F28D0264B58
:100DE4005968C1F3881C4FEA4C11B1EB0C006EEB4F
:100DF4000E0E4FEA8E1343EA90638101091A63EBE6
:100E04000E03DB0043EA5173C90011EB0C0C43F1F0
:100E14000003590200234FEA4C2041EADC51FFF75A
:100E240089FA154B5B68C3F30273B0FBF3F075E703
:100E3400114B5968C1F3881C4FEA4C11B1EB0C00FB
:100E44006EEB0E0E4FEA8E1343EA90638101091A8A
:100E540063EB0E03DB0043EA5173C90011EB0C0C86
:100E640043F10003990200234FEA8C2041EA9C518C
:100E7400FFF760FAD5E700BF003802400024F40011
:100E840000127A00002800F0018270B582B0044696
:100E9400036813F0010F41D0994B9B6803F00C03D6
:100EA400042B32D0964B9B6803F00C03082B27D0FD
:100EB400934B9B6803F00C030C2B59D06368B3F578
:100EC400803F5BD0B3F5A02F5ED08D4B1A6822F41F
:100ED40080321A601A6822F480221A606368002B38
:100EE4005CD000F09BFB0546854B1B6813F4003F68
:100EF40014D100F093FB401B6428F5D90320CCE106
:100F04007F4B5B6813F4800FD2D07D4B1B6813F4C6
:100F1400003F03D06368002B00F0BA81236813F00C
:100F2400020F60D0764B9B6813F00C0F4AD0744BC1
:100F34009B6803F00C03082B3FD0714B9B6803F0B4
:100F44000C030C2B69D0E368002B75D06D4B012288
:100F54001A6000F063FB0546694B1B6813F0020F2F
:100F640061D100F05BFB401B0228F5D9032094E11A
:100F7400634B5B6813F4800FA0D0C6E7604A136824
:100F840043F480331360A9E75D4B1A6842F480226E
:100F94001A601A6842F480321A609FE700F03EFB40
:100FA4000546574B1B6813F4003FB7D000F036FBDF
:100FB400401B6428F5D903206FE1514B5B6813F49F
:100FC400800FBAD14E4B1B6813F0020F03D0E368B5
:100FD400012B40F05F814A4A136823F0F80321692A
:100FE40043EAC1031360236813F0080F49D063690F
:100FF400002B33D0434B0122C3F8802E00F00EFBAC
:1010040005463F4B5B6F13F0020F3AD100F006FB2D
:10101400401B0228F5D903203FE1394B5B6813F4E8
:10102400800F90D1CEE7364A136823F0F803216984
:1010340043EAC1031360D6E7324B00221A6000F082
:10104400EDFA05462E4B1B6813F0020FCBD000F0CF
:10105400E5FA401B0228F5D903201EE1294B0022A2
:10106400C3F8802E00F0DAFA0546254B5B6F13F0C7
:10107400020F06D000F0D2FA401B0228F5D9032053
:101084000BE1236813F0040F76D01D4B1B6C13F097
:10109400805F33D100230193194B1A6C42F08052C4
:1010A4001A641B6C03F080530193019B0125164BBA
:1010B4001B6813F4807F29D0A368012B3AD0052B39
:1010C4003ED00F4B1A6F22F001021A671A6F22F0FA
:1010D40004021A67A368002B3CD000F09FFA06466E
:1010E400074B1B6F13F0020F45D100F097FA801BDA
:1010F40041F288339842F3D90320CEE00025D6E7A5
:101104000038024000004742007000406B4A1368F8
:1011140043F48073136000F081FA0646674B1B6842
:1011240013F4807FC8D100F079FA801B0228F5D926
:101134000320B2E0624A136F43F001031367C9E767
:101144005F4B1A6F42F004021A671A6F42F00102F1
:101154001A67BFE700F062FA0646594B1B6F13F09B
:10116400020F08D000F05AFA801B41F288339842EB
:10117400F3D9032091E0EDB9A369002B00F08C8032
:101184004F4A926802F00C02082A54D0022B17D05E
:101194004C4B00221A6600F041FA0446484B1B6887
:1011A40013F0007F45D000F039FA001B0228F5D96E
:1011B400032072E0424A136C23F080531364DBE78C
:1011C400404B00221A6600F029FA05463C4B1B6886
:1011D40013F0007F06D000F021FA401B0228F5D955
:1011E40003205AE0E369226A1343626A43EA8213E2
:1011F400A26A5208013A43EA0243E26A43EA0263FA
:10120400226B43EA02732E4A53602E4B01221A6664
:1012140000F004FA04462A4B1B6813F0007F06D141
:1012240000F0FCF9001B0228F5D9032035E000206A
:1012340033E0002031E0012B31D0214B5B6803F413
:101244008001E26991422CD103F03F02216A8A4273
:1012540029D1616A47F6C0721A40B2EB811F24D1CA
:1012640003F44031A26A5208013AB1EB024F1ED195
:1012740003F07062E16AB2EB016F1AD103F0E0434C
:10128400226BB3EB027F16D1002006E001207047E9
:10129400012002E0012000E0002002B070BD012026
:1012A400FBE70120F9E70120F7E70120F5E701203A
:1012B400F3E70120F1E70120EFE700BF00700040F1
:1012C400003802400000474200230F2B00F2DE806A
:1012D40070B582B060E085685E000324B44025EAFE
:1012E4000405CC68B4402C438460456825EA0205B3
:1012F4004C68C4F300129A402A4342605AE0DC0866
:10130400083450F8246003F0070295000F22AA4025
:1013140026EA020E0A69AA4042EA0E0240F8242094
:101324005CE0062200E0002202FA0EF22A430234B4
:10133400574D45F82420574A94686FEA0C0224EA72
:101344000C054E6816F4801F01D04CEA0405514C7C
:10135400A560E46802EA04054E6816F4001F01D093
:101364004CEA04054B4CE560646802EA04054E68E7
:1013740016F4003F01D04CEA0405464C656024682D
:1013840022404D6815F4803F01D04CEA0402414CE0
:10139400226001330F2B77D801229A400C6804EAAB
:1013A400020C32EA0404F4D14C6804F00304013C56
:1013B400012C90D94A6802F00302032A09D0C468B8
:1013C4005D000322AA4024EA02048A68AA40224358
:1013D400C2604A6802F00302022A90D004684FEA0D
:1013E400430E032202FA0EF224EA02044A6802F0CF
:1013F400030202FA0EF2224302604A6812F4403FEA
:10140400C7D000220192244A546C44F480445464AA
:10141400526C02F480420192019A9C08A51C1C4A59
:1014240052F8255003F003024FEA820E0F2202FA0B
:101434000EF225EA0205194A90423FF474AF02F510
:101444008062904216D002F58062904214D002F578
:101454008062904212D002F58062904210D002F570
:10146400806290420ED002F5806290423FF459AF00
:10147400072259E7012257E7022255E7032253E7DF
:10148400042251E705224FE702B070BD704700BF48
:1014940000380140003C0140003802400000024096
:1014A4000AB181617047090481617047074AD368B2
:1014B40023F4E0631B041B0C000200F4E06003430C
:1014C40043F0BF6343F40033D360704700ED00E0A2
:1014D40000B5194BDB68C3F30223C3F1070CBCF15D
:1014E400040F28BF4FF0040C03F1040EBEF1060FE5
:1014F40018D9033B4FF0FF3E0EFA0CFC21EA0C0115
:1015040099400EFA03F322EA0303194300280BDB84
:101514000901C9B200F1604000F5614080F8001390
:101524005DF804FB0023E5E700F00F000901C9B2F0
:10153400024B1954F4E700BF00ED00E014ED00E0A5
:10154400002807DB00F01F02400901239340024AF0
:1015540042F82030704700BF00E100E00138B0F1EC
:10156400807F0BD24FF0E0235861054AF02182F8C6
:1015740023100020986107221A61704701207047E8
:1015840000ED00E010B504460E4B18784FF47A7362
:10159400B3FBF0F30C4A1068B0FBF3F0FFF7DEFF87
:1015A40068B90F2C01D901200AE0002221464FF02E
:1015B400FF30FFF78DFF054B1C60002000E0012089
:1015C40010BD00BF0000002008000020040000201F
:1015D40008B50B4B1A6842F400721A601A6842F498
:1015E40080621A601A6842F480721A600320FFF75E
:1015F4005DFF0020FFF7C6FFFFF7B6F8002008BD27
:10160400003C0240034A1168034B1B780B441360EF
:10161400704700BF2800002000000020014B18681C
:10162400704700BF2800002010B4036A046A24F045
:1016340001040462846924F0F00C4CEA021223F0E1
:101644000A030B43826103625DF8044B704710B4D4
:10165400036A046A24F010040462846924F4704C5C
:101664004CEA023223F0A00343EA011382610362CD
:101674005DF8044B7047836823F070030B4343F019
:10168400070383607047704770477047704770471F
:1016940070B504460368DE681D6915F0020F10D0AA
:1016A40016F0020F0DD06FF002021A6101230377C6
:1016B40003689B6913F0030F5ED0FFF7E6FF002376
:1016C400237715F0040F12D016F0040F0FD02368FF
:1016D4006FF004021A610223237723689B6913F4D1
:1016E400407F4FD02046FFF7D0FF0023237715F02B
:1016F400080F12D016F0080F0FD023686FF00802FD
:101704001A61042323772368DB6913F0030F40D0A5
:101714002046FFF7BAFF0023237715F0100F12D0ED
:1017240016F0100F0FD023686FF010021A6108230F
:1017340023772368DB6913F4407F31D02046FFF719
:10174400A4FF0023237715F0010F02D016F0010F38
:101754002DD115F0800F02D016F0800F2FD115F087
:10176400400F02D016F0400F31D115F0200F02D0F7
:1017740016F0200F33D170BDFFF786FF2046FFF728
:1017840085FF9CE72046FFF77FFF2046FFF77EFF9B
:10179400ABE72046FFF778FF2046FFF777FFBAE76D
:1017A4002046FFF771FF2046FFF770FFC9E7236863
:1017B4006FF001021A612046FFF765FFC9E723684D
:1017C4006FF080021A61204600F07DF9C7E72368B4
:1017D4006FF040021A612046FFF759FFC5E72368FE
:1017E4006FF020021A61204600F06CF9C3E7000094
:1017F4000368344A904212D0B0F1804F0FD0A2F562
:101804007C4290420BD002F58062904207D002F5F0
:101814008062904203D002F57842904203D123F0D3
:1018240070034A681343274A90422AD0B0F1804F8C
:1018340027D0A2F57C42904223D002F580629042E8
:101844001FD002F5806290421BD002F5784290428C
:1018540017D002F57052904213D002F58062904284
:101864000FD002F5806290420BD0A2F598329042DC
:1018740007D002F58062904203D002F58062904264
:1018840003D123F44073CA68134323F080034A69E5
:10189400134303608B68C3620B688362094B9842ED
:1018A40003D003F58063984201D10B6903630123DC
:1018B4004361036913F0010F03D0036923F00103AB
:1018C400036170470000014040B310B5044690F82E
:1018D4003D30F3B1022384F83D30214651F8040B26
:1018E400FFF786FF012384F8463084F83E3084F8FD
:1018F4003F3084F8403084F8413084F8423084F832
:10190400433084F8443084F8453084F83D30002076
:1019140010BD80F83C3000F09DFADBE701207047F1
:1019240010B4846824F47F4C42EA03220A4342EA56
:101934000C0282605DF8044B704790F83C30012B38
:1019440078D010B50446012380F83C30022380F897
:101954003D300268936823F47F4323F07703936058
:101964000B68602B4CD029D8402B54D00CD9502B69
:1019740022D1CA6849680068FFF756FE50212068E2
:10198400FFF779FE002005E0202B0DD009D9302B7C
:101994000AD00120012384F83D30002384F83C3030
:1019A40010BD0BB1102B05D119462068FFF763FE5B
:1019B4000020EFE70120EDE70120EBE7B3F5805FBE
:1019C40034D0B3F5005F0CD1CB684A6889680068ED
:1019D400FFF7A6FF2268936843F4804393600020D6
:1019E400D8E7702B24D1CB684A6889680068FFF770
:1019F40097FF2268936843F0770393600020C9E758
:101A0400CA6849680068FFF722FE60212068FFF772
:101A140032FE0020BEE7CA6849680068FFF704FE8A
:101A240040212068FFF727FE0020B3E70020B1E73C
:101A34000120AFE70220704790F83C30012B3DD0E5
:101A440010B4012380F83C30022380F83D30036851
:101A54005A689C6822F0700C0A6842EA0C025A60C8
:101A64000368174A93421AD0B3F1804F17D0A2F5F6
:101A74007C42934213D002F5806293420FD002F568
:101A8400806293420BD002F57842934207D002F56C
:101A94007052934203D0A2F59432934204D124F0BD
:101AA40080044A6814439C60012380F83D3000237D
:101AB40080F83C3018465DF8044B704702207047AC
:101AC400000001407047704738B504460268136946
:101AD40023F44053C1680B431361836802691343C1
:101AE40042691343C2691A430168CB6823F416435D
:101AF40023F00C031343CB600268536923F440734F
:101B040081690B4353610368314A934206D002F55D
:101B14008062934202D0FFF7D5F801E0FFF7E2F8C4
:101B2400E369B3F5004F29D00021031849411B187C
:101B340041F10001C90041EA5371DB0018186368E0
:101B44004FEA83024FEA937341F10001FEF7F2FB7F
:101B5400204DA5FB00325109642303FB11031B0133
:101B64003233A5FB03235B0903F0F00202EB0112FD
:101B740003F00F03216813448B6038BD002302185F
:101B840043EB0301121841F10001C90041EA52710B
:101B9400D200101841F10001626892185B41FEF70F
:101BA400C9FB0C4DA5FB00325109642303FB11034F
:101BB400DB003233A5FB03235B095A0002F4F872FD
:101BC40002EB011203F00703216813448B60D4E78E
:101BD400001001401F85EB5160B310B5044690F826
:101BE400413013B3242384F841302268D36823F4AA
:101BF4000053D3602046FFF767FF2268136923F47C
:101C0400904313612268536923F02A0353612268C5
:101C1400D36843F40053D36000206064202384F825
:101C2400413084F84230606310BD80F8403000F0E9
:101C340049F9D7E701207047034AD2F8883043F4C2
:101C44007003C2F88830704700ED00E030B58BB007
:101C54000024059406940794089409940194224B53
:101C64001A6B42F004021A631A6B02F00402019226
:101C7400019A02941A6B42F080021A631A6B02F002
:101C840080020292029A03941A6B42F001021A63D0
:101C94001A6B02F001020392039A04941A6B42F045
:101CA40002021A631B6B03F002030493049B0F4D9F
:101CB400224620212846FFF7F3FB4FF400530593F7
:101CC4004FF404130693079405A90948FFF7FCFA97
:101CD40020230593012306930794089405A9284615
:101CE400FFF7F2FA0BB030BD0038024000000240AA
:101CF4000008024008B50E480E4B036003234360FE
:101D04004FF0804383600023C3604FF430220261AC
:101D14004FF480124261037643768376C376037769
:101D24004377FEF741FD00B908BDFEF785FCFBE7EC
:101D34002C0000200064004010B588B000230393F9
:101D440004930593069307930268254B9A4201D0A6
:101D540008B010BD0024019403F5EA331A6C42F074
:101D640000721A641A6C02F000720192019A0294D1
:101D74001A6B42F001021A631B6B03F00103029316
:101D8400029B4FF4C053039302230493032306934B
:101D94000923079303A91348FFF796FA224621461D
:101DA4001320FFF795FB1320FFF7CAFB22462146B9
:101DB4001420FFF78DFB1420FFF7C2FB22462146B7
:101DC4001520FFF785FB1520FFF7BAFB22462146B5
:101DD4001620FFF77DFB1620FFF7B2FBB8E700BF24
:101DE400006400400000024000B587B00023029365
:101DF4000393049305930093019314484FF0804296
:101E0400026043608360124AC26003618361FFF72A
:101E14005BFD90B94FF48053029302A90B48FFF77E
:101E24008CFD68B900230093019369460748FFF7C6
:101E340003FE40B907B05DF804FBFEF7FDFBE9E7DC
:101E4400FEF7FAFBEEE7FEF7F7FBF3E7540000209A
:101E54009FBB0D000368B3F1804F00D0704700B5FD
:101E640083B00021019103F50E331A6C42F0010294
:101E74001A641B6C03F001030193019B0A461C20A6
:101E8400FFF726FB1C20FFF75BFB03B05DF804FBA8
:101E940008B50A480A4B03604FF4E133436000235A
:101EA4008360C36003610C2242618361C361FFF7F5
:101EB40093FE00B908BDFEF7BFFBFBE79C000020C2
:101EC4000044004000B589B00023039304930593B4
:101ED400069307930268154B9A4202D009B05DF845
:101EE40004FB0021019103F5FA331A6C42F4003229
:101EF4001A641A6C02F400320192019A02911A6B6C
:101F040042F001021A631B6B03F001030293029B6C
:101F14000C230393022304930323069307230793B9
:101F240003A90348FFF7D0F9D8E700BF00440040F5
:101F340000000240DFF834D0FFF77EFE0C480D4964
:101F44000D4A002302E0D458C4500433C4188C4210
:101F5400F9D30A4A0A4C002301E013600432A24276
:101F6400FBD3FEF771F9FEF7BDFB704700000220BA
:101F7400000000200C000020CC1F00080C000020F2
:101F8400E4000020FEE70000F8B500BFF8BC08BC80
:101F94009E467047F8B500BFF8BC08BC9E46704723
:101FA4000000000000000000010203040607080905
:081FB40000000000010203041B
:081FBC00ACE3FF7F010000000F
:041FC4002D020008E2
:041FC8000502000806
:0C1FCC0001000000100000000024F400E0
:0400000508001F3997
:00000001FF
